{
  "contractName": "DragonSlayer",
  "abi": [
    {
      "inputs": [
        {
          "internalType": "address",
          "name": "_marketplaceContract",
          "type": "address"
        }
      ],
      "stateMutability": "nonpayable",
      "type": "constructor"
    },
    {
      "anonymous": false,
      "inputs": [
        {
          "indexed": true,
          "internalType": "address",
          "name": "owner",
          "type": "address"
        },
        {
          "indexed": true,
          "internalType": "address",
          "name": "approved",
          "type": "address"
        },
        {
          "indexed": true,
          "internalType": "uint256",
          "name": "tokenId",
          "type": "uint256"
        }
      ],
      "name": "Approval",
      "type": "event"
    },
    {
      "anonymous": false,
      "inputs": [
        {
          "indexed": true,
          "internalType": "address",
          "name": "owner",
          "type": "address"
        },
        {
          "indexed": true,
          "internalType": "address",
          "name": "operator",
          "type": "address"
        },
        {
          "indexed": false,
          "internalType": "bool",
          "name": "approved",
          "type": "bool"
        }
      ],
      "name": "ApprovalForAll",
      "type": "event"
    },
    {
      "anonymous": false,
      "inputs": [
        {
          "indexed": false,
          "internalType": "uint256",
          "name": "",
          "type": "uint256"
        }
      ],
      "name": "NFTMinted",
      "type": "event"
    },
    {
      "anonymous": false,
      "inputs": [
        {
          "indexed": true,
          "internalType": "address",
          "name": "previousOwner",
          "type": "address"
        },
        {
          "indexed": true,
          "internalType": "address",
          "name": "newOwner",
          "type": "address"
        }
      ],
      "name": "OwnershipTransferred",
      "type": "event"
    },
    {
      "anonymous": false,
      "inputs": [
        {
          "indexed": false,
          "internalType": "address",
          "name": "account",
          "type": "address"
        }
      ],
      "name": "Paused",
      "type": "event"
    },
    {
      "anonymous": false,
      "inputs": [
        {
          "indexed": true,
          "internalType": "address",
          "name": "from",
          "type": "address"
        },
        {
          "indexed": true,
          "internalType": "address",
          "name": "to",
          "type": "address"
        },
        {
          "indexed": true,
          "internalType": "uint256",
          "name": "tokenId",
          "type": "uint256"
        }
      ],
      "name": "Transfer",
      "type": "event"
    },
    {
      "anonymous": false,
      "inputs": [
        {
          "indexed": false,
          "internalType": "address",
          "name": "account",
          "type": "address"
        }
      ],
      "name": "Unpaused",
      "type": "event"
    },
    {
      "inputs": [
        {
          "internalType": "address",
          "name": "to",
          "type": "address"
        },
        {
          "internalType": "uint256",
          "name": "tokenId",
          "type": "uint256"
        }
      ],
      "name": "approve",
      "outputs": [],
      "stateMutability": "nonpayable",
      "type": "function"
    },
    {
      "inputs": [
        {
          "internalType": "address",
          "name": "owner",
          "type": "address"
        }
      ],
      "name": "balanceOf",
      "outputs": [
        {
          "internalType": "uint256",
          "name": "",
          "type": "uint256"
        }
      ],
      "stateMutability": "view",
      "type": "function",
      "constant": true
    },
    {
      "inputs": [
        {
          "internalType": "uint256",
          "name": "tokenId",
          "type": "uint256"
        }
      ],
      "name": "burn",
      "outputs": [],
      "stateMutability": "nonpayable",
      "type": "function"
    },
    {
      "inputs": [
        {
          "internalType": "uint256",
          "name": "tokenId",
          "type": "uint256"
        }
      ],
      "name": "getApproved",
      "outputs": [
        {
          "internalType": "address",
          "name": "",
          "type": "address"
        }
      ],
      "stateMutability": "view",
      "type": "function",
      "constant": true
    },
    {
      "inputs": [
        {
          "internalType": "address",
          "name": "owner",
          "type": "address"
        },
        {
          "internalType": "address",
          "name": "operator",
          "type": "address"
        }
      ],
      "name": "isApprovedForAll",
      "outputs": [
        {
          "internalType": "bool",
          "name": "",
          "type": "bool"
        }
      ],
      "stateMutability": "view",
      "type": "function",
      "constant": true
    },
    {
      "inputs": [],
      "name": "name",
      "outputs": [
        {
          "internalType": "string",
          "name": "",
          "type": "string"
        }
      ],
      "stateMutability": "view",
      "type": "function",
      "constant": true
    },
    {
      "inputs": [],
      "name": "owner",
      "outputs": [
        {
          "internalType": "address",
          "name": "",
          "type": "address"
        }
      ],
      "stateMutability": "view",
      "type": "function",
      "constant": true
    },
    {
      "inputs": [
        {
          "internalType": "uint256",
          "name": "tokenId",
          "type": "uint256"
        }
      ],
      "name": "ownerOf",
      "outputs": [
        {
          "internalType": "address",
          "name": "",
          "type": "address"
        }
      ],
      "stateMutability": "view",
      "type": "function",
      "constant": true
    },
    {
      "inputs": [],
      "name": "paused",
      "outputs": [
        {
          "internalType": "bool",
          "name": "",
          "type": "bool"
        }
      ],
      "stateMutability": "view",
      "type": "function",
      "constant": true
    },
    {
      "inputs": [],
      "name": "renounceOwnership",
      "outputs": [],
      "stateMutability": "nonpayable",
      "type": "function"
    },
    {
      "inputs": [
        {
          "internalType": "address",
          "name": "from",
          "type": "address"
        },
        {
          "internalType": "address",
          "name": "to",
          "type": "address"
        },
        {
          "internalType": "uint256",
          "name": "tokenId",
          "type": "uint256"
        }
      ],
      "name": "safeTransferFrom",
      "outputs": [],
      "stateMutability": "nonpayable",
      "type": "function"
    },
    {
      "inputs": [
        {
          "internalType": "address",
          "name": "from",
          "type": "address"
        },
        {
          "internalType": "address",
          "name": "to",
          "type": "address"
        },
        {
          "internalType": "uint256",
          "name": "tokenId",
          "type": "uint256"
        },
        {
          "internalType": "bytes",
          "name": "data",
          "type": "bytes"
        }
      ],
      "name": "safeTransferFrom",
      "outputs": [],
      "stateMutability": "nonpayable",
      "type": "function"
    },
    {
      "inputs": [
        {
          "internalType": "address",
          "name": "operator",
          "type": "address"
        },
        {
          "internalType": "bool",
          "name": "approved",
          "type": "bool"
        }
      ],
      "name": "setApprovalForAll",
      "outputs": [],
      "stateMutability": "nonpayable",
      "type": "function"
    },
    {
      "inputs": [],
      "name": "symbol",
      "outputs": [
        {
          "internalType": "string",
          "name": "",
          "type": "string"
        }
      ],
      "stateMutability": "view",
      "type": "function",
      "constant": true
    },
    {
      "inputs": [
        {
          "internalType": "uint256",
          "name": "index",
          "type": "uint256"
        }
      ],
      "name": "tokenByIndex",
      "outputs": [
        {
          "internalType": "uint256",
          "name": "",
          "type": "uint256"
        }
      ],
      "stateMutability": "view",
      "type": "function",
      "constant": true
    },
    {
      "inputs": [
        {
          "internalType": "address",
          "name": "owner",
          "type": "address"
        },
        {
          "internalType": "uint256",
          "name": "index",
          "type": "uint256"
        }
      ],
      "name": "tokenOfOwnerByIndex",
      "outputs": [
        {
          "internalType": "uint256",
          "name": "",
          "type": "uint256"
        }
      ],
      "stateMutability": "view",
      "type": "function",
      "constant": true
    },
    {
      "inputs": [],
      "name": "totalSupply",
      "outputs": [
        {
          "internalType": "uint256",
          "name": "",
          "type": "uint256"
        }
      ],
      "stateMutability": "view",
      "type": "function",
      "constant": true
    },
    {
      "inputs": [
        {
          "internalType": "address",
          "name": "from",
          "type": "address"
        },
        {
          "internalType": "address",
          "name": "to",
          "type": "address"
        },
        {
          "internalType": "uint256",
          "name": "tokenId",
          "type": "uint256"
        }
      ],
      "name": "transferFrom",
      "outputs": [],
      "stateMutability": "nonpayable",
      "type": "function"
    },
    {
      "inputs": [
        {
          "internalType": "address",
          "name": "newOwner",
          "type": "address"
        }
      ],
      "name": "transferOwnership",
      "outputs": [],
      "stateMutability": "nonpayable",
      "type": "function"
    },
    {
      "inputs": [],
      "name": "pause",
      "outputs": [],
      "stateMutability": "nonpayable",
      "type": "function"
    },
    {
      "inputs": [],
      "name": "unpause",
      "outputs": [],
      "stateMutability": "nonpayable",
      "type": "function"
    },
    {
      "inputs": [
        {
          "internalType": "string",
          "name": "uri",
          "type": "string"
        }
      ],
      "name": "safeMint",
      "outputs": [],
      "stateMutability": "nonpayable",
      "type": "function"
    },
    {
      "inputs": [
        {
          "internalType": "uint256",
          "name": "tokenId",
          "type": "uint256"
        }
      ],
      "name": "tokenURI",
      "outputs": [
        {
          "internalType": "string",
          "name": "",
          "type": "string"
        }
      ],
      "stateMutability": "view",
      "type": "function",
      "constant": true
    },
    {
      "inputs": [
        {
          "internalType": "bytes4",
          "name": "interfaceId",
          "type": "bytes4"
        }
      ],
      "name": "supportsInterface",
      "outputs": [
        {
          "internalType": "bool",
          "name": "",
          "type": "bool"
        }
      ],
      "stateMutability": "view",
      "type": "function",
      "constant": true
    }
  ],
  "bytecode": "0x6080604052620186a0600f553480156200001857600080fd5b5060405162003e8038038062003e8083398181016040528101906200003e919062000349565b6040518060400160405280600e81526020017f447261676f6e20536c61796572730000000000000000000000000000000000008152506040518060400160405280600381526020017f44524700000000000000000000000000000000000000000000000000000000008152508160009080519060200190620000c29291906200022f565b508060019080519060200190620000db9291906200022f565b5050506000600b60006101000a81548160ff021916908315150217905550620001196200010d6200016160201b60201c565b6200016960201b60201c565b80600d60006101000a81548173ffffffffffffffffffffffffffffffffffffffff021916908373ffffffffffffffffffffffffffffffffffffffff16021790555050620003df565b600033905090565b6000600b60019054906101000a900473ffffffffffffffffffffffffffffffffffffffff16905081600b60016101000a81548173ffffffffffffffffffffffffffffffffffffffff021916908373ffffffffffffffffffffffffffffffffffffffff1602179055508173ffffffffffffffffffffffffffffffffffffffff168173ffffffffffffffffffffffffffffffffffffffff167f8be0079c531659141344cd1fd0a4f28419497f9722a3daafe3b4186f6b6457e060405160405180910390a35050565b8280546200023d90620003aa565b90600052602060002090601f016020900481019282620002615760008555620002ad565b82601f106200027c57805160ff1916838001178555620002ad565b82800160010185558215620002ad579182015b82811115620002ac5782518255916020019190600101906200028f565b5b509050620002bc9190620002c0565b5090565b5b80821115620002db576000816000905550600101620002c1565b5090565b600080fd5b600073ffffffffffffffffffffffffffffffffffffffff82169050919050565b60006200031182620002e4565b9050919050565b620003238162000304565b81146200032f57600080fd5b50565b600081519050620003438162000318565b92915050565b600060208284031215620003625762000361620002df565b5b6000620003728482850162000332565b91505092915050565b7f4e487b7100000000000000000000000000000000000000000000000000000000600052602260045260246000fd5b60006002820490506001821680620003c357607f821691505b602082108103620003d957620003d86200037b565b5b50919050565b613a9180620003ef6000396000f3fe608060405234801561001057600080fd5b50600436106101585760003560e01c80636352211e116100c357806395d89b411161007c57806395d89b411461039f578063a22cb465146103bd578063b88d4fde146103d9578063c87b56dd146103f5578063e985e9c514610425578063f2fde38b1461045557610158565b80636352211e146102f1578063695850fb1461032157806370a082311461033d578063715018a61461036d5780638456cb59146103775780638da5cb5b1461038157610158565b80632f745c59116101155780632f745c59146102315780633f4ba83a1461026157806342842e0e1461026b57806342966c68146102875780634f6ccce7146102a35780635c975abb146102d357610158565b806301ffc9a71461015d57806306fdde031461018d578063081812fc146101ab578063095ea7b3146101db57806318160ddd146101f757806323b872dd14610215575b600080fd5b610177600480360381019061017291906126bb565b610471565b6040516101849190612703565b60405180910390f35b610195610483565b6040516101a291906127b7565b60405180910390f35b6101c560048036038101906101c0919061280f565b610515565b6040516101d2919061287d565b60405180910390f35b6101f560048036038101906101f091906128c4565b61055b565b005b6101ff610672565b60405161020c9190612913565b60405180910390f35b61022f600480360381019061022a919061292e565b61067f565b005b61024b600480360381019061024691906128c4565b6106df565b6040516102589190612913565b60405180910390f35b610269610784565b005b6102856004803603810190610280919061292e565b610796565b005b6102a1600480360381019061029c919061280f565b6107b6565b005b6102bd60048036038101906102b8919061280f565b610812565b6040516102ca9190612913565b60405180910390f35b6102db610883565b6040516102e89190612703565b60405180910390f35b61030b6004803603810190610306919061280f565b61089a565b604051610318919061287d565b60405180910390f35b61033b60048036038101906103369190612ab6565b61094b565b005b61035760048036038101906103529190612aff565b610a59565b6040516103649190612913565b60405180910390f35b610375610b10565b005b61037f610b24565b005b610389610b36565b604051610396919061287d565b60405180910390f35b6103a7610b60565b6040516103b491906127b7565b60405180910390f35b6103d760048036038101906103d29190612b58565b610bf2565b005b6103f360048036038101906103ee9190612c39565b610c08565b005b61040f600480360381019061040a919061280f565b610c6a565b60405161041c91906127b7565b60405180910390f35b61043f600480360381019061043a9190612cbc565b610c7c565b60405161044c9190612703565b60405180910390f35b61046f600480360381019061046a9190612aff565b610d10565b005b600061047c82610d93565b9050919050565b60606000805461049290612d2b565b80601f01602080910402602001604051908101604052809291908181526020018280546104be90612d2b565b801561050b5780601f106104e05761010080835404028352916020019161050b565b820191906000526020600020905b8154815290600101906020018083116104ee57829003601f168201915b5050505050905090565b600061052082610e0d565b6004600083815260200190815260200160002060009054906101000a900473ffffffffffffffffffffffffffffffffffffffff169050919050565b60006105668261089a565b90508073ffffffffffffffffffffffffffffffffffffffff168373ffffffffffffffffffffffffffffffffffffffff16036105d6576040517f08c379a00000000000000000000000000000000000000000000000000000000081526004016105cd90612dce565b60405180910390fd5b8073ffffffffffffffffffffffffffffffffffffffff166105f5610e58565b73ffffffffffffffffffffffffffffffffffffffff16148061062457506106238161061e610e58565b610c7c565b5b610663576040517f08c379a000000000000000000000000000000000000000000000000000000000815260040161065a90612e60565b60405180910390fd5b61066d8383610e60565b505050565b6000600880549050905090565b61069061068a610e58565b82610f19565b6106cf576040517f08c379a00000000000000000000000000000000000000000000000000000000081526004016106c690612ef2565b60405180910390fd5b6106da838383610fae565b505050565b60006106ea83610a59565b821061072b576040517f08c379a000000000000000000000000000000000000000000000000000000000815260040161072290612f84565b60405180910390fd5b600660008473ffffffffffffffffffffffffffffffffffffffff1673ffffffffffffffffffffffffffffffffffffffff168152602001908152602001600020600083815260200190815260200160002054905092915050565b61078c611214565b610794611292565b565b6107b183838360405180602001604052806000815250610c08565b505050565b6107c76107c1610e58565b82610f19565b610806576040517f08c379a00000000000000000000000000000000000000000000000000000000081526004016107fd90612ef2565b60405180910390fd5b61080f816112f5565b50565b600061081c610672565b821061085d576040517f08c379a000000000000000000000000000000000000000000000000000000000815260040161085490613016565b60405180910390fd5b6008828154811061087157610870613036565b5b90600052602060002001549050919050565b6000600b60009054906101000a900460ff16905090565b6000806002600084815260200190815260200160002060009054906101000a900473ffffffffffffffffffffffffffffffffffffffff169050600073ffffffffffffffffffffffffffffffffffffffff168173ffffffffffffffffffffffffffffffffffffffff1603610942576040517f08c379a0000000000000000000000000000000000000000000000000000000008152600401610939906130b1565b60405180910390fd5b80915050919050565b6000610957600e611301565b9050610963600e61130f565b600f54610970600e611301565b11156109b1576040517f08c379a00000000000000000000000000000000000000000000000000000000081526004016109a890613143565b60405180910390fd5b6109bb3382611325565b6109c58183611343565b6109f1600d60009054906101000a900473ffffffffffffffffffffffffffffffffffffffff168261055b565b610a1e600d60009054906101000a900473ffffffffffffffffffffffffffffffffffffffff166001610bf2565b7fd9dc24857f317ed9abbbb42e920ede0104231eb1d3d70236a74887ffaf15986881604051610a4d9190612913565b60405180910390a15050565b60008073ffffffffffffffffffffffffffffffffffffffff168273ffffffffffffffffffffffffffffffffffffffff1603610ac9576040517f08c379a0000000000000000000000000000000000000000000000000000000008152600401610ac0906131d5565b60405180910390fd5b600360008373ffffffffffffffffffffffffffffffffffffffff1673ffffffffffffffffffffffffffffffffffffffff168152602001908152602001600020549050919050565b610b18611214565b610b2260006113b7565b565b610b2c611214565b610b3461147d565b565b6000600b60019054906101000a900473ffffffffffffffffffffffffffffffffffffffff16905090565b606060018054610b6f90612d2b565b80601f0160208091040260200160405190810160405280929190818152602001828054610b9b90612d2b565b8015610be85780601f10610bbd57610100808354040283529160200191610be8565b820191906000526020600020905b815481529060010190602001808311610bcb57829003601f168201915b5050505050905090565b610c04610bfd610e58565b83836114e0565b5050565b610c19610c13610e58565b83610f19565b610c58576040517f08c379a0000000000000000000000000000000000000000000000000000000008152600401610c4f90612ef2565b60405180910390fd5b610c648484848461164c565b50505050565b6060610c75826116a8565b9050919050565b6000600560008473ffffffffffffffffffffffffffffffffffffffff1673ffffffffffffffffffffffffffffffffffffffff16815260200190815260200160002060008373ffffffffffffffffffffffffffffffffffffffff1673ffffffffffffffffffffffffffffffffffffffff16815260200190815260200160002060009054906101000a900460ff16905092915050565b610d18611214565b600073ffffffffffffffffffffffffffffffffffffffff168173ffffffffffffffffffffffffffffffffffffffff1603610d87576040517f08c379a0000000000000000000000000000000000000000000000000000000008152600401610d7e90613267565b60405180910390fd5b610d90816113b7565b50565b60007f780e9d63000000000000000000000000000000000000000000000000000000007bffffffffffffffffffffffffffffffffffffffffffffffffffffffff1916827bffffffffffffffffffffffffffffffffffffffffffffffffffffffff19161480610e065750610e05826117ba565b5b9050919050565b610e168161189c565b610e55576040517f08c379a0000000000000000000000000000000000000000000000000000000008152600401610e4c906130b1565b60405180910390fd5b50565b600033905090565b816004600083815260200190815260200160002060006101000a81548173ffffffffffffffffffffffffffffffffffffffff021916908373ffffffffffffffffffffffffffffffffffffffff160217905550808273ffffffffffffffffffffffffffffffffffffffff16610ed38361089a565b73ffffffffffffffffffffffffffffffffffffffff167f8c5be1e5ebec7d5bd14f71427d1e84f3dd0314c0f7b2291e5b200ac8c7c3b92560405160405180910390a45050565b600080610f258361089a565b90508073ffffffffffffffffffffffffffffffffffffffff168473ffffffffffffffffffffffffffffffffffffffff161480610f675750610f668185610c7c565b5b80610fa557508373ffffffffffffffffffffffffffffffffffffffff16610f8d84610515565b73ffffffffffffffffffffffffffffffffffffffff16145b91505092915050565b8273ffffffffffffffffffffffffffffffffffffffff16610fce8261089a565b73ffffffffffffffffffffffffffffffffffffffff1614611024576040517f08c379a000000000000000000000000000000000000000000000000000000000815260040161101b906132f9565b60405180910390fd5b600073ffffffffffffffffffffffffffffffffffffffff168273ffffffffffffffffffffffffffffffffffffffff1603611093576040517f08c379a000000000000000000000000000000000000000000000000000000000815260040161108a9061338b565b60405180910390fd5b61109e838383611908565b6110a9600082610e60565b6001600360008573ffffffffffffffffffffffffffffffffffffffff1673ffffffffffffffffffffffffffffffffffffffff16815260200190815260200160002060008282546110f991906133da565b925050819055506001600360008473ffffffffffffffffffffffffffffffffffffffff1673ffffffffffffffffffffffffffffffffffffffff1681526020019081526020016000206000828254611150919061340e565b92505081905550816002600083815260200190815260200160002060006101000a81548173ffffffffffffffffffffffffffffffffffffffff021916908373ffffffffffffffffffffffffffffffffffffffff160217905550808273ffffffffffffffffffffffffffffffffffffffff168473ffffffffffffffffffffffffffffffffffffffff167fddf252ad1be2c89b69c2b068fc378daa952ba7f163c4a11628f55a4df523b3ef60405160405180910390a461120f838383611920565b505050565b61121c610e58565b73ffffffffffffffffffffffffffffffffffffffff1661123a610b36565b73ffffffffffffffffffffffffffffffffffffffff1614611290576040517f08c379a0000000000000000000000000000000000000000000000000000000008152600401611287906134b0565b60405180910390fd5b565b61129a611925565b6000600b60006101000a81548160ff0219169083151502179055507f5db9ee0a495bf2e6ff9c91a7834c1ba4fdd244a5e8aa4e537bd38aeae4b073aa6112de610e58565b6040516112eb919061287d565b60405180910390a1565b6112fe8161196e565b50565b600081600001549050919050565b6001816000016000828254019250508190555050565b61133f8282604051806020016040528060008152506119c1565b5050565b61134c8261189c565b61138b576040517f08c379a000000000000000000000000000000000000000000000000000000000815260040161138290613542565b60405180910390fd5b80600a600084815260200190815260200160002090805190602001906113b292919061256c565b505050565b6000600b60019054906101000a900473ffffffffffffffffffffffffffffffffffffffff16905081600b60016101000a81548173ffffffffffffffffffffffffffffffffffffffff021916908373ffffffffffffffffffffffffffffffffffffffff1602179055508173ffffffffffffffffffffffffffffffffffffffff168173ffffffffffffffffffffffffffffffffffffffff167f8be0079c531659141344cd1fd0a4f28419497f9722a3daafe3b4186f6b6457e060405160405180910390a35050565b611485611a1c565b6001600b60006101000a81548160ff0219169083151502179055507f62e78cea01bee320cd4e420270b5ea74000d11b0c9f74754ebdbfc544b05a2586114c9610e58565b6040516114d6919061287d565b60405180910390a1565b8173ffffffffffffffffffffffffffffffffffffffff168373ffffffffffffffffffffffffffffffffffffffff160361154e576040517f08c379a0000000000000000000000000000000000000000000000000000000008152600401611545906135ae565b60405180910390fd5b80600560008573ffffffffffffffffffffffffffffffffffffffff1673ffffffffffffffffffffffffffffffffffffffff16815260200190815260200160002060008473ffffffffffffffffffffffffffffffffffffffff1673ffffffffffffffffffffffffffffffffffffffff16815260200190815260200160002060006101000a81548160ff0219169083151502179055508173ffffffffffffffffffffffffffffffffffffffff168373ffffffffffffffffffffffffffffffffffffffff167f17307eab39ab6107e8899845ad3d59bd9653f200f220920489ca2b5937696c318360405161163f9190612703565b60405180910390a3505050565b611657848484610fae565b61166384848484611a66565b6116a2576040517f08c379a000000000000000000000000000000000000000000000000000000000815260040161169990613640565b60405180910390fd5b50505050565b60606116b382610e0d565b6000600a600084815260200190815260200160002080546116d390612d2b565b80601f01602080910402602001604051908101604052809291908181526020018280546116ff90612d2b565b801561174c5780601f106117215761010080835404028352916020019161174c565b820191906000526020600020905b81548152906001019060200180831161172f57829003601f168201915b50505050509050600061175d611bed565b905060008151036117725781925050506117b5565b6000825111156117a757808260405160200161178f92919061369c565b604051602081830303815290604052925050506117b5565b6117b084611c04565b925050505b919050565b60007f80ac58cd000000000000000000000000000000000000000000000000000000007bffffffffffffffffffffffffffffffffffffffffffffffffffffffff1916827bffffffffffffffffffffffffffffffffffffffffffffffffffffffff1916148061188557507f5b5e139f000000000000000000000000000000000000000000000000000000007bffffffffffffffffffffffffffffffffffffffffffffffffffffffff1916827bffffffffffffffffffffffffffffffffffffffffffffffffffffffff1916145b80611895575061189482611c6c565b5b9050919050565b60008073ffffffffffffffffffffffffffffffffffffffff166002600084815260200190815260200160002060009054906101000a900473ffffffffffffffffffffffffffffffffffffffff1673ffffffffffffffffffffffffffffffffffffffff1614159050919050565b611910611a1c565b61191b838383611cd6565b505050565b505050565b61192d610883565b61196c576040517f08c379a00000000000000000000000000000000000000000000000000000000081526004016119639061370c565b60405180910390fd5b565b61197781611de8565b6000600a6000838152602001908152602001600020805461199790612d2b565b9050146119be57600a600082815260200190815260200160002060006119bd91906125f2565b5b50565b6119cb8383611f05565b6119d86000848484611a66565b611a17576040517f08c379a0000000000000000000000000000000000000000000000000000000008152600401611a0e90613640565b60405180910390fd5b505050565b611a24610883565b15611a64576040517f08c379a0000000000000000000000000000000000000000000000000000000008152600401611a5b90613778565b60405180910390fd5b565b6000611a878473ffffffffffffffffffffffffffffffffffffffff166120de565b15611be0578373ffffffffffffffffffffffffffffffffffffffff1663150b7a02611ab0610e58565b8786866040518563ffffffff1660e01b8152600401611ad294939291906137ed565b6020604051808303816000875af1925050508015611b0e57506040513d601f19601f82011682018060405250810190611b0b919061384e565b60015b611b90573d8060008114611b3e576040519150601f19603f3d011682016040523d82523d6000602084013e611b43565b606091505b506000815103611b88576040517f08c379a0000000000000000000000000000000000000000000000000000000008152600401611b7f90613640565b60405180910390fd5b805181602001fd5b63150b7a0260e01b7bffffffffffffffffffffffffffffffffffffffffffffffffffffffff1916817bffffffffffffffffffffffffffffffffffffffffffffffffffffffff191614915050611be5565b600190505b949350505050565b606060405180602001604052806000815250905090565b6060611c0f82610e0d565b6000611c19611bed565b90506000815111611c395760405180602001604052806000815250611c64565b80611c4384612101565b604051602001611c5492919061369c565b6040516020818303038152906040525b915050919050565b60007f01ffc9a7000000000000000000000000000000000000000000000000000000007bffffffffffffffffffffffffffffffffffffffffffffffffffffffff1916827bffffffffffffffffffffffffffffffffffffffffffffffffffffffff1916149050919050565b611ce1838383612261565b600073ffffffffffffffffffffffffffffffffffffffff168373ffffffffffffffffffffffffffffffffffffffff1603611d2357611d1e81612266565b611d62565b8173ffffffffffffffffffffffffffffffffffffffff168373ffffffffffffffffffffffffffffffffffffffff1614611d6157611d6083826122af565b5b5b600073ffffffffffffffffffffffffffffffffffffffff168273ffffffffffffffffffffffffffffffffffffffff1603611da457611d9f8161241c565b611de3565b8273ffffffffffffffffffffffffffffffffffffffff168273ffffffffffffffffffffffffffffffffffffffff1614611de257611de182826124ed565b5b5b505050565b6000611df38261089a565b9050611e0181600084611908565b611e0c600083610e60565b6001600360008373ffffffffffffffffffffffffffffffffffffffff1673ffffffffffffffffffffffffffffffffffffffff1681526020019081526020016000206000828254611e5c91906133da565b925050819055506002600083815260200190815260200160002060006101000a81549073ffffffffffffffffffffffffffffffffffffffff021916905581600073ffffffffffffffffffffffffffffffffffffffff168273ffffffffffffffffffffffffffffffffffffffff167fddf252ad1be2c89b69c2b068fc378daa952ba7f163c4a11628f55a4df523b3ef60405160405180910390a4611f0181600084611920565b5050565b600073ffffffffffffffffffffffffffffffffffffffff168273ffffffffffffffffffffffffffffffffffffffff1603611f74576040517f08c379a0000000000000000000000000000000000000000000000000000000008152600401611f6b906138c7565b60405180910390fd5b611f7d8161189c565b15611fbd576040517f08c379a0000000000000000000000000000000000000000000000000000000008152600401611fb490613933565b60405180910390fd5b611fc960008383611908565b6001600360008473ffffffffffffffffffffffffffffffffffffffff1673ffffffffffffffffffffffffffffffffffffffff1681526020019081526020016000206000828254612019919061340e565b92505081905550816002600083815260200190815260200160002060006101000a81548173ffffffffffffffffffffffffffffffffffffffff021916908373ffffffffffffffffffffffffffffffffffffffff160217905550808273ffffffffffffffffffffffffffffffffffffffff16600073ffffffffffffffffffffffffffffffffffffffff167fddf252ad1be2c89b69c2b068fc378daa952ba7f163c4a11628f55a4df523b3ef60405160405180910390a46120da60008383611920565b5050565b6000808273ffffffffffffffffffffffffffffffffffffffff163b119050919050565b606060008203612148576040518060400160405280600181526020017f3000000000000000000000000000000000000000000000000000000000000000815250905061225c565b600082905060005b6000821461217a57808061216390613953565b915050600a8261217391906139ca565b9150612150565b60008167ffffffffffffffff8111156121965761219561298b565b5b6040519080825280601f01601f1916602001820160405280156121c85781602001600182028036833780820191505090505b5090505b60008514612255576001826121e191906133da565b9150600a856121f091906139fb565b60306121fc919061340e565b60f81b81838151811061221257612211613036565b5b60200101907effffffffffffffffffffffffffffffffffffffffffffffffffffffffffffff1916908160001a905350600a8561224e91906139ca565b94506121cc565b8093505050505b919050565b505050565b6008805490506009600083815260200190815260200160002081905550600881908060018154018082558091505060019003906000526020600020016000909190919091505550565b600060016122bc84610a59565b6122c691906133da565b90506000600760008481526020019081526020016000205490508181146123ab576000600660008673ffffffffffffffffffffffffffffffffffffffff1673ffffffffffffffffffffffffffffffffffffffff168152602001908152602001600020600084815260200190815260200160002054905080600660008773ffffffffffffffffffffffffffffffffffffffff1673ffffffffffffffffffffffffffffffffffffffff168152602001908152602001600020600084815260200190815260200160002081905550816007600083815260200190815260200160002081905550505b6007600084815260200190815260200160002060009055600660008573ffffffffffffffffffffffffffffffffffffffff1673ffffffffffffffffffffffffffffffffffffffff16815260200190815260200160002060008381526020019081526020016000206000905550505050565b6000600160088054905061243091906133da565b90506000600960008481526020019081526020016000205490506000600883815481106124605761245f613036565b5b90600052602060002001549050806008838154811061248257612481613036565b5b9060005260206000200181905550816009600083815260200190815260200160002081905550600960008581526020019081526020016000206000905560088054806124d1576124d0613a2c565b5b6001900381819060005260206000200160009055905550505050565b60006124f883610a59565b905081600660008573ffffffffffffffffffffffffffffffffffffffff1673ffffffffffffffffffffffffffffffffffffffff168152602001908152602001600020600083815260200190815260200160002081905550806007600084815260200190815260200160002081905550505050565b82805461257890612d2b565b90600052602060002090601f01602090048101928261259a57600085556125e1565b82601f106125b357805160ff19168380011785556125e1565b828001600101855582156125e1579182015b828111156125e05782518255916020019190600101906125c5565b5b5090506125ee9190612632565b5090565b5080546125fe90612d2b565b6000825580601f10612610575061262f565b601f01602090049060005260206000209081019061262e9190612632565b5b50565b5b8082111561264b576000816000905550600101612633565b5090565b6000604051905090565b600080fd5b600080fd5b60007fffffffff0000000000000000000000000000000000000000000000000000000082169050919050565b61269881612663565b81146126a357600080fd5b50565b6000813590506126b58161268f565b92915050565b6000602082840312156126d1576126d0612659565b5b60006126df848285016126a6565b91505092915050565b60008115159050919050565b6126fd816126e8565b82525050565b600060208201905061271860008301846126f4565b92915050565b600081519050919050565b600082825260208201905092915050565b60005b8381101561275857808201518184015260208101905061273d565b83811115612767576000848401525b50505050565b6000601f19601f8301169050919050565b60006127898261271e565b6127938185612729565b93506127a381856020860161273a565b6127ac8161276d565b840191505092915050565b600060208201905081810360008301526127d1818461277e565b905092915050565b6000819050919050565b6127ec816127d9565b81146127f757600080fd5b50565b600081359050612809816127e3565b92915050565b60006020828403121561282557612824612659565b5b6000612833848285016127fa565b91505092915050565b600073ffffffffffffffffffffffffffffffffffffffff82169050919050565b60006128678261283c565b9050919050565b6128778161285c565b82525050565b6000602082019050612892600083018461286e565b92915050565b6128a18161285c565b81146128ac57600080fd5b50565b6000813590506128be81612898565b92915050565b600080604083850312156128db576128da612659565b5b60006128e9858286016128af565b92505060206128fa858286016127fa565b9150509250929050565b61290d816127d9565b82525050565b60006020820190506129286000830184612904565b92915050565b60008060006060848603121561294757612946612659565b5b6000612955868287016128af565b9350506020612966868287016128af565b9250506040612977868287016127fa565b9150509250925092565b600080fd5b600080fd5b7f4e487b7100000000000000000000000000000000000000000000000000000000600052604160045260246000fd5b6129c38261276d565b810181811067ffffffffffffffff821117156129e2576129e161298b565b5b80604052505050565b60006129f561264f565b9050612a0182826129ba565b919050565b600067ffffffffffffffff821115612a2157612a2061298b565b5b612a2a8261276d565b9050602081019050919050565b82818337600083830152505050565b6000612a59612a5484612a06565b6129eb565b905082815260208101848484011115612a7557612a74612986565b5b612a80848285612a37565b509392505050565b600082601f830112612a9d57612a9c612981565b5b8135612aad848260208601612a46565b91505092915050565b600060208284031215612acc57612acb612659565b5b600082013567ffffffffffffffff811115612aea57612ae961265e565b5b612af684828501612a88565b91505092915050565b600060208284031215612b1557612b14612659565b5b6000612b23848285016128af565b91505092915050565b612b35816126e8565b8114612b4057600080fd5b50565b600081359050612b5281612b2c565b92915050565b60008060408385031215612b6f57612b6e612659565b5b6000612b7d858286016128af565b9250506020612b8e85828601612b43565b9150509250929050565b600067ffffffffffffffff821115612bb357612bb261298b565b5b612bbc8261276d565b9050602081019050919050565b6000612bdc612bd784612b98565b6129eb565b905082815260208101848484011115612bf857612bf7612986565b5b612c03848285612a37565b509392505050565b600082601f830112612c2057612c1f612981565b5b8135612c30848260208601612bc9565b91505092915050565b60008060008060808587031215612c5357612c52612659565b5b6000612c61878288016128af565b9450506020612c72878288016128af565b9350506040612c83878288016127fa565b925050606085013567ffffffffffffffff811115612ca457612ca361265e565b5b612cb087828801612c0b565b91505092959194509250565b60008060408385031215612cd357612cd2612659565b5b6000612ce1858286016128af565b9250506020612cf2858286016128af565b9150509250929050565b7f4e487b7100000000000000000000000000000000000000000000000000000000600052602260045260246000fd5b60006002820490506001821680612d4357607f821691505b602082108103612d5657612d55612cfc565b5b50919050565b7f4552433732313a20617070726f76616c20746f2063757272656e74206f776e6560008201527f7200000000000000000000000000000000000000000000000000000000000000602082015250565b6000612db8602183612729565b9150612dc382612d5c565b604082019050919050565b60006020820190508181036000830152612de781612dab565b9050919050565b7f4552433732313a20617070726f76652063616c6c6572206973206e6f7420746f60008201527f6b656e206f776e6572206e6f7220617070726f76656420666f7220616c6c0000602082015250565b6000612e4a603e83612729565b9150612e5582612dee565b604082019050919050565b60006020820190508181036000830152612e7981612e3d565b9050919050565b7f4552433732313a2063616c6c6572206973206e6f7420746f6b656e206f776e6560008201527f72206e6f7220617070726f766564000000000000000000000000000000000000602082015250565b6000612edc602e83612729565b9150612ee782612e80565b604082019050919050565b60006020820190508181036000830152612f0b81612ecf565b9050919050565b7f455243373231456e756d657261626c653a206f776e657220696e646578206f7560008201527f74206f6620626f756e6473000000000000000000000000000000000000000000602082015250565b6000612f6e602b83612729565b9150612f7982612f12565b604082019050919050565b60006020820190508181036000830152612f9d81612f61565b9050919050565b7f455243373231456e756d657261626c653a20676c6f62616c20696e646578206f60008201527f7574206f6620626f756e64730000000000000000000000000000000000000000602082015250565b6000613000602c83612729565b915061300b82612fa4565b604082019050919050565b6000602082019050818103600083015261302f81612ff3565b9050919050565b7f4e487b7100000000000000000000000000000000000000000000000000000000600052603260045260246000fd5b7f4552433732313a20696e76616c696420746f6b656e2049440000000000000000600082015250565b600061309b601883612729565b91506130a682613065565b602082019050919050565b600060208201905081810360008301526130ca8161308e565b9050919050565b7f49276d20736f727279207765207265616368656420746865204d41582053555060008201527f504c59206f6620746f6b656e7300000000000000000000000000000000000000602082015250565b600061312d602d83612729565b9150613138826130d1565b604082019050919050565b6000602082019050818103600083015261315c81613120565b9050919050565b7f4552433732313a2061646472657373207a65726f206973206e6f74206120766160008201527f6c6964206f776e65720000000000000000000000000000000000000000000000602082015250565b60006131bf602983612729565b91506131ca82613163565b604082019050919050565b600060208201905081810360008301526131ee816131b2565b9050919050565b7f4f776e61626c653a206e6577206f776e657220697320746865207a65726f206160008201527f6464726573730000000000000000000000000000000000000000000000000000602082015250565b6000613251602683612729565b915061325c826131f5565b604082019050919050565b6000602082019050818103600083015261328081613244565b9050919050565b7f4552433732313a207472616e736665722066726f6d20696e636f72726563742060008201527f6f776e6572000000000000000000000000000000000000000000000000000000602082015250565b60006132e3602583612729565b91506132ee82613287565b604082019050919050565b60006020820190508181036000830152613312816132d6565b9050919050565b7f4552433732313a207472616e7366657220746f20746865207a65726f2061646460008201527f7265737300000000000000000000000000000000000000000000000000000000602082015250565b6000613375602483612729565b915061338082613319565b604082019050919050565b600060208201905081810360008301526133a481613368565b9050919050565b7f4e487b7100000000000000000000000000000000000000000000000000000000600052601160045260246000fd5b60006133e5826127d9565b91506133f0836127d9565b925082821015613403576134026133ab565b5b828203905092915050565b6000613419826127d9565b9150613424836127d9565b9250827fffffffffffffffffffffffffffffffffffffffffffffffffffffffffffffffff03821115613459576134586133ab565b5b828201905092915050565b7f4f776e61626c653a2063616c6c6572206973206e6f7420746865206f776e6572600082015250565b600061349a602083612729565b91506134a582613464565b602082019050919050565b600060208201905081810360008301526134c98161348d565b9050919050565b7f45524337323155524953746f726167653a2055524920736574206f66206e6f6e60008201527f6578697374656e7420746f6b656e000000000000000000000000000000000000602082015250565b600061352c602e83612729565b9150613537826134d0565b604082019050919050565b6000602082019050818103600083015261355b8161351f565b9050919050565b7f4552433732313a20617070726f766520746f2063616c6c657200000000000000600082015250565b6000613598601983612729565b91506135a382613562565b602082019050919050565b600060208201905081810360008301526135c78161358b565b9050919050565b7f4552433732313a207472616e7366657220746f206e6f6e20455243373231526560008201527f63656976657220696d706c656d656e7465720000000000000000000000000000602082015250565b600061362a603283612729565b9150613635826135ce565b604082019050919050565b600060208201905081810360008301526136598161361d565b9050919050565b600081905092915050565b60006136768261271e565b6136808185613660565b935061369081856020860161273a565b80840191505092915050565b60006136a8828561366b565b91506136b4828461366b565b91508190509392505050565b7f5061757361626c653a206e6f7420706175736564000000000000000000000000600082015250565b60006136f6601483612729565b9150613701826136c0565b602082019050919050565b60006020820190508181036000830152613725816136e9565b9050919050565b7f5061757361626c653a2070617573656400000000000000000000000000000000600082015250565b6000613762601083612729565b915061376d8261372c565b602082019050919050565b6000602082019050818103600083015261379181613755565b9050919050565b600081519050919050565b600082825260208201905092915050565b60006137bf82613798565b6137c981856137a3565b93506137d981856020860161273a565b6137e28161276d565b840191505092915050565b6000608082019050613802600083018761286e565b61380f602083018661286e565b61381c6040830185612904565b818103606083015261382e81846137b4565b905095945050505050565b6000815190506138488161268f565b92915050565b60006020828403121561386457613863612659565b5b600061387284828501613839565b91505092915050565b7f4552433732313a206d696e7420746f20746865207a65726f2061646472657373600082015250565b60006138b1602083612729565b91506138bc8261387b565b602082019050919050565b600060208201905081810360008301526138e0816138a4565b9050919050565b7f4552433732313a20746f6b656e20616c7265616479206d696e74656400000000600082015250565b600061391d601c83612729565b9150613928826138e7565b602082019050919050565b6000602082019050818103600083015261394c81613910565b9050919050565b600061395e826127d9565b91507fffffffffffffffffffffffffffffffffffffffffffffffffffffffffffffffff82036139905761398f6133ab565b5b600182019050919050565b7f4e487b7100000000000000000000000000000000000000000000000000000000600052601260045260246000fd5b60006139d5826127d9565b91506139e0836127d9565b9250826139f0576139ef61399b565b5b828204905092915050565b6000613a06826127d9565b9150613a11836127d9565b925082613a2157613a2061399b565b5b828206905092915050565b7f4e487b7100000000000000000000000000000000000000000000000000000000600052603160045260246000fdfea264697066735822122027b0a8aa9e9d4f106706510f4d81022a68a550a62d2747679bf87dadf113aaff64736f6c634300080d0033",
  "immutableReferences": {},
  "source": "// SPDX-License-Identifier: MIT\npragma solidity ^0.8.4;\n\nimport \"@openzeppelin/contracts/token/ERC721/ERC721.sol\";\nimport \"@openzeppelin/contracts/token/ERC721/extensions/ERC721Enumerable.sol\";\nimport \"@openzeppelin/contracts/token/ERC721/extensions/ERC721URIStorage.sol\";\nimport \"@openzeppelin/contracts/security/Pausable.sol\";\nimport \"@openzeppelin/contracts/access/Ownable.sol\";\nimport \"@openzeppelin/contracts/token/ERC721/extensions/ERC721Burnable.sol\";\nimport \"@openzeppelin/contracts/utils/Counters.sol\";\n\ncontract DragonSlayer is\n    ERC721,\n    ERC721Enumerable,\n    ERC721URIStorage,\n    Pausable,\n    Ownable,\n    ERC721Burnable\n{\n    using Counters for Counters.Counter;\n    Counters.Counter private _tokenIds;\n    address marketplaceContract;\n    event NFTMinted(uint256);\n    Counters.Counter private _tokenIdCounter;\n    uint256 MAX_SUPPLY = 100000;\n\n    constructor(address _marketplaceContract)\n        ERC721(\"Dragon Slayers\", \"DRG\")\n    {\n        marketplaceContract = _marketplaceContract;\n    }\n\n    function pause() public onlyOwner {\n        _pause();\n    }\n\n    function unpause() public onlyOwner {\n        _unpause();\n    }\n\n    function safeMint(string memory uri) public {\n        uint256 tokenId = _tokenIdCounter.current();        \n        _tokenIdCounter.increment(); \n        require(_tokenIdCounter.current() <= MAX_SUPPLY, \"I'm sorry we reached the MAX SUPPLY of tokens\");\n        _safeMint(msg.sender, tokenId); \n        _setTokenURI(tokenId, uri);\n        approve(marketplaceContract, tokenId);\n        setApprovalForAll(marketplaceContract, true);        \n        emit NFTMinted(tokenId);\n    }\n\n    function _beforeTokenTransfer(\n        address from,\n        address to,\n        uint256 tokenId\n    ) internal override(ERC721, ERC721Enumerable) whenNotPaused {\n        super._beforeTokenTransfer(from, to, tokenId);\n    }\n\n    // The following functions are overrides required by Solidity.\n\n    function _burn(uint256 tokenId)\n        internal\n        override(ERC721, ERC721URIStorage)\n    {\n        super._burn(tokenId);\n    }\n\n    function tokenURI(uint256 tokenId)\n        public\n        view\n        override(ERC721, ERC721URIStorage)\n        returns (string memory)\n    {\n        return super.tokenURI(tokenId);\n    }\n\n    function supportsInterface(bytes4 interfaceId)\n        public\n        view\n        override(ERC721, ERC721Enumerable)\n        returns (bool)\n    {\n        return super.supportsInterface(interfaceId);\n    }\n}\n",
  "sourcePath": "C:\\Projects\\DraagonSlayers\\contracts\\ethereum\\DragonSlayer.sol",
  "compiler": {
    "name": "solc",
    "version": "0.8.13+commit.abaa5c0e.Emscripten.clang"
  },
  "schemaVersion": "3.4.9",
  "updatedAt": "2022-09-21T10:58:33.602Z",
  "networkType": "ethereum",
  "devdoc": {
    "kind": "dev",
    "methods": {
      "approve(address,uint256)": {
        "details": "See {IERC721-approve}."
      },
      "balanceOf(address)": {
        "details": "See {IERC721-balanceOf}."
      },
      "burn(uint256)": {
        "details": "Burns `tokenId`. See {ERC721-_burn}. Requirements: - The caller must own `tokenId` or be an approved operator."
      },
      "getApproved(uint256)": {
        "details": "See {IERC721-getApproved}."
      },
      "isApprovedForAll(address,address)": {
        "details": "See {IERC721-isApprovedForAll}."
      },
      "name()": {
        "details": "See {IERC721Metadata-name}."
      },
      "owner()": {
        "details": "Returns the address of the current owner."
      },
      "ownerOf(uint256)": {
        "details": "See {IERC721-ownerOf}."
      },
      "paused()": {
        "details": "Returns true if the contract is paused, and false otherwise."
      },
      "renounceOwnership()": {
        "details": "Leaves the contract without owner. It will not be possible to call `onlyOwner` functions anymore. Can only be called by the current owner. NOTE: Renouncing ownership will leave the contract without an owner, thereby removing any functionality that is only available to the owner."
      },
      "safeTransferFrom(address,address,uint256)": {
        "details": "See {IERC721-safeTransferFrom}."
      },
      "safeTransferFrom(address,address,uint256,bytes)": {
        "details": "See {IERC721-safeTransferFrom}."
      },
      "setApprovalForAll(address,bool)": {
        "details": "See {IERC721-setApprovalForAll}."
      },
      "symbol()": {
        "details": "See {IERC721Metadata-symbol}."
      },
      "tokenByIndex(uint256)": {
        "details": "See {IERC721Enumerable-tokenByIndex}."
      },
      "tokenOfOwnerByIndex(address,uint256)": {
        "details": "See {IERC721Enumerable-tokenOfOwnerByIndex}."
      },
      "totalSupply()": {
        "details": "See {IERC721Enumerable-totalSupply}."
      },
      "transferFrom(address,address,uint256)": {
        "details": "See {IERC721-transferFrom}."
      },
      "transferOwnership(address)": {
        "details": "Transfers ownership of the contract to a new account (`newOwner`). Can only be called by the current owner."
      }
    },
    "version": 1
  },
  "userdoc": {
    "kind": "user",
    "methods": {},
    "version": 1
  }
}